{
  "contractName": "Project",
  "abi": [
    {
      "inputs": [
        {
          "internalType": "uint256",
          "name": "_target",
          "type": "uint256"
        },
        {
          "internalType": "uint256",
          "name": "_deadline",
          "type": "uint256"
        }
      ],
      "stateMutability": "nonpayable",
      "type": "constructor"
    },
    {
      "inputs": [
        {
          "internalType": "uint256",
          "name": "",
          "type": "uint256"
        }
      ],
      "name": "aboutrequest",
      "outputs": [
        {
          "internalType": "string",
          "name": "description",
          "type": "string"
        },
        {
          "internalType": "uint256",
          "name": "amountrequired",
          "type": "uint256"
        },
        {
          "internalType": "address payable",
          "name": "reciepent",
          "type": "address"
        },
        {
          "internalType": "uint256",
          "name": "numberofvotes",
          "type": "uint256"
        },
        {
          "internalType": "bool",
          "name": "votingdone",
          "type": "bool"
        }
      ],
      "stateMutability": "view",
      "type": "function"
    },
    {
      "inputs": [
        {
          "internalType": "address",
          "name": "",
          "type": "address"
        }
      ],
      "name": "contributorsamount",
      "outputs": [
        {
          "internalType": "uint256",
          "name": "",
          "type": "uint256"
        }
      ],
      "stateMutability": "view",
      "type": "function"
    },
    {
      "inputs": [],
      "name": "deadline",
      "outputs": [
        {
          "internalType": "uint256",
          "name": "",
          "type": "uint256"
        }
      ],
      "stateMutability": "view",
      "type": "function"
    },
    {
      "inputs": [],
      "name": "manager",
      "outputs": [
        {
          "internalType": "address",
          "name": "",
          "type": "address"
        }
      ],
      "stateMutability": "view",
      "type": "function"
    },
    {
      "inputs": [],
      "name": "minimum_contirbution",
      "outputs": [
        {
          "internalType": "uint256",
          "name": "",
          "type": "uint256"
        }
      ],
      "stateMutability": "view",
      "type": "function"
    },
    {
      "inputs": [],
      "name": "number_of_contributors",
      "outputs": [
        {
          "internalType": "uint256",
          "name": "",
          "type": "uint256"
        }
      ],
      "stateMutability": "view",
      "type": "function"
    },
    {
      "inputs": [],
      "name": "numberofrequests",
      "outputs": [
        {
          "internalType": "uint256",
          "name": "",
          "type": "uint256"
        }
      ],
      "stateMutability": "view",
      "type": "function"
    },
    {
      "inputs": [],
      "name": "raisedamount",
      "outputs": [
        {
          "internalType": "uint256",
          "name": "",
          "type": "uint256"
        }
      ],
      "stateMutability": "view",
      "type": "function"
    },
    {
      "inputs": [],
      "name": "target",
      "outputs": [
        {
          "internalType": "uint256",
          "name": "",
          "type": "uint256"
        }
      ],
      "stateMutability": "view",
      "type": "function"
    },
    {
      "inputs": [],
      "name": "sendeth",
      "outputs": [],
      "stateMutability": "payable",
      "type": "function"
    },
    {
      "inputs": [],
      "name": "getbalance",
      "outputs": [
        {
          "internalType": "uint256",
          "name": "",
          "type": "uint256"
        }
      ],
      "stateMutability": "view",
      "type": "function"
    },
    {
      "inputs": [],
      "name": "refund",
      "outputs": [],
      "stateMutability": "nonpayable",
      "type": "function"
    },
    {
      "inputs": [
        {
          "internalType": "string",
          "name": "_description",
          "type": "string"
        },
        {
          "internalType": "address payable",
          "name": "_reciepent",
          "type": "address"
        },
        {
          "internalType": "uint256",
          "name": "_amountrequired",
          "type": "uint256"
        }
      ],
      "name": "createrequest",
      "outputs": [],
      "stateMutability": "nonpayable",
      "type": "function"
    },
    {
      "inputs": [
        {
          "internalType": "uint256",
          "name": "_requestNo",
          "type": "uint256"
        }
      ],
      "name": "voteRequest",
      "outputs": [],
      "stateMutability": "nonpayable",
      "type": "function"
    },
    {
      "inputs": [
        {
          "internalType": "uint256",
          "name": "_requestNo",
          "type": "uint256"
        }
      ],
      "name": "recieveth",
      "outputs": [],
      "stateMutability": "nonpayable",
      "type": "function"
    }
  ],
  "bytecode": "0x608060405234801562000010575f80fd5b5060405162001b3238038062001b328339818101604052810190620000369190620000dd565b80426200004491906200014f565b6003819055508160028190555060646004819055503360015f6101000a81548173ffffffffffffffffffffffffffffffffffffffff021916908373ffffffffffffffffffffffffffffffffffffffff160217905550505062000189565b5f80fd5b5f819050919050565b620000b981620000a5565b8114620000c4575f80fd5b50565b5f81519050620000d781620000ae565b92915050565b5f8060408385031215620000f657620000f5620000a1565b5b5f6200010585828601620000c7565b92505060206200011885828601620000c7565b9150509250929050565b7f4e487b71000000000000000000000000000000000000000000000000000000005f52601160045260245ffd5b5f6200015b82620000a5565b91506200016883620000a5565b925082820190508082111562000183576200018262000122565b5b92915050565b61199b80620001975f395ff3fe6080604052600436106100e6575f3560e01c80634cb6f4a511610089578063810bb96011610058578063810bb960146102905780639de914af146102ba578063c71b5b88146102fa578063d4b8399214610324576100e6565b80634cb6f4a5146101fe5780634d9b3d5d14610226578063590e1ae31461025057806371fd63b314610266576100e6565b806330817529116100c5578063308175291461015a5780633b644d1814610182578063481c6a75146101ac5780634b405111146101d6576100e6565b8062912944146100ea57806315ce85fb1461012657806329dcb0cf14610130575b5f80fd5b3480156100f5575f80fd5b50610110600480360381019061010b9190610d13565b61034e565b60405161011d9190610d56565b60405180910390f35b61012e610362565b005b34801561013b575f80fd5b506101446104b2565b6040516101519190610d56565b60405180910390f35b348015610165575f80fd5b50610180600480360381019061017b9190610f10565b6104b8565b005b34801561018d575f80fd5b506101966105fa565b6040516101a39190610d56565b60405180910390f35b3480156101b7575f80fd5b506101c0610600565b6040516101cd9190610f8b565b60405180910390f35b3480156101e1575f80fd5b506101fc60048036038101906101f79190610fa4565b610625565b005b348015610209575f80fd5b50610224600480360381019061021f9190610fa4565b61084d565b005b348015610231575f80fd5b5061023a610a0e565b6040516102479190610d56565b60405180910390f35b34801561025b575f80fd5b50610264610a15565b005b348015610271575f80fd5b5061027a610bad565b6040516102879190610d56565b60405180910390f35b34801561029b575f80fd5b506102a4610bb3565b6040516102b19190610d56565b60405180910390f35b3480156102c5575f80fd5b506102e060048036038101906102db9190610fa4565b610bb9565b6040516102f1959493929190611072565b60405180910390f35b348015610305575f80fd5b5061030e610c9c565b60405161031b9190610d56565b60405180910390f35b34801561032f575f80fd5b50610338610ca2565b6040516103459190610d56565b60405180910390f35b5f602052805f5260405f205f915090505481565b60035442106103a6576040517f08c379a000000000000000000000000000000000000000000000000000000000815260040161039d90611114565b60405180910390fd5b6004543410156103eb576040517f08c379a00000000000000000000000000000000000000000000000000000000081526004016103e2906111a2565b60405180910390fd5b5f805f3373ffffffffffffffffffffffffffffffffffffffff1673ffffffffffffffffffffffffffffffffffffffff1681526020019081526020015f2054036104465760065f815480929190610440906111ed565b91905055505b345f803373ffffffffffffffffffffffffffffffffffffffff1673ffffffffffffffffffffffffffffffffffffffff1681526020019081526020015f205f8282546104919190611234565b925050819055503460055f8282546104a99190611234565b92505081905550565b60035481565b60015f9054906101000a900473ffffffffffffffffffffffffffffffffffffffff1673ffffffffffffffffffffffffffffffffffffffff163373ffffffffffffffffffffffffffffffffffffffff1614610547576040517f08c379a000000000000000000000000000000000000000000000000000000000815260040161053e906112b1565b60405180910390fd5b5f60085f60075481526020019081526020015f20905060075f81548092919061056f906111ed565b919050555083815f01908161058491906114c9565b5082816002015f6101000a81548173ffffffffffffffffffffffffffffffffffffffff021916908373ffffffffffffffffffffffffffffffffffffffff1602179055508181600101819055505f816004015f6101000a81548160ff0219169083151502179055505f816003018190555050505050565b60055481565b60015f9054906101000a900473ffffffffffffffffffffffffffffffffffffffff1681565b60015f9054906101000a900473ffffffffffffffffffffffffffffffffffffffff1673ffffffffffffffffffffffffffffffffffffffff163373ffffffffffffffffffffffffffffffffffffffff16146106b4576040517f08c379a00000000000000000000000000000000000000000000000000000000081526004016106ab906112b1565b60405180910390fd5b60025460055410156106fb576040517f08c379a00000000000000000000000000000000000000000000000000000000081526004016106f2906115e2565b60405180910390fd5b5f60085f8381526020019081526020015f20905060011515816004015f9054906101000a900460ff16151514610766576040517f08c379a000000000000000000000000000000000000000000000000000000000815260040161075d90611670565b60405180910390fd5b600260065461077591906116bb565b8160030154116107ba576040517f08c379a00000000000000000000000000000000000000000000000000000000081526004016107b19061175b565b60405180910390fd5b806002015f9054906101000a900473ffffffffffffffffffffffffffffffffffffffff1673ffffffffffffffffffffffffffffffffffffffff166108fc826001015490811502906040515f60405180830381858888f19350505050158015610824573d5f803e3d5ffd5b505f816004015f6101000a81548160ff0219169083151502179055505f81600301819055505050565b5f805f3373ffffffffffffffffffffffffffffffffffffffff1673ffffffffffffffffffffffffffffffffffffffff1681526020019081526020015f2054116108cb576040517f08c379a00000000000000000000000000000000000000000000000000000000081526004016108c2906117e9565b60405180910390fd5b5f60085f8381526020019081526020015f2090505f1515816005015f3373ffffffffffffffffffffffffffffffffffffffff1673ffffffffffffffffffffffffffffffffffffffff1681526020019081526020015f205f9054906101000a900460ff16151514610970576040517f08c379a000000000000000000000000000000000000000000000000000000000815260040161096790611877565b60405180910390fd5b6001816005015f3373ffffffffffffffffffffffffffffffffffffffff1673ffffffffffffffffffffffffffffffffffffffff1681526020019081526020015f205f6101000a81548160ff021916908315150217905550806003015f8154809291906109db906111ed565b9190505550600654816003015403610a0a576001816004015f6101000a81548160ff0219169083151502179055505b5050565b5f47905090565b6002546005541080610a28575060035442115b610a67576040517f08c379a0000000000000000000000000000000000000000000000000000000008152600401610a5e906118df565b60405180910390fd5b5f805f3373ffffffffffffffffffffffffffffffffffffffff1673ffffffffffffffffffffffffffffffffffffffff1681526020019081526020015f205411610ae5576040517f08c379a0000000000000000000000000000000000000000000000000000000008152600401610adc90611947565b60405180910390fd5b5f3390508073ffffffffffffffffffffffffffffffffffffffff166108fc5f803373ffffffffffffffffffffffffffffffffffffffff1673ffffffffffffffffffffffffffffffffffffffff1681526020019081526020015f205490811502906040515f60405180830381858888f19350505050158015610b68573d5f803e3d5ffd5b505f805f3373ffffffffffffffffffffffffffffffffffffffff1673ffffffffffffffffffffffffffffffffffffffff1681526020019081526020015f208190555050565b60075481565b60045481565b6008602052805f5260405f205f91509050805f018054610bd8906112fc565b80601f0160208091040260200160405190810160405280929190818152602001828054610c04906112fc565b8015610c4f5780601f10610c2657610100808354040283529160200191610c4f565b820191905f5260205f20905b815481529060010190602001808311610c3257829003601f168201915b505050505090806001015490806002015f9054906101000a900473ffffffffffffffffffffffffffffffffffffffff1690806003015490806004015f9054906101000a900460ff16905085565b60065481565b60025481565b5f604051905090565b5f80fd5b5f80fd5b5f73ffffffffffffffffffffffffffffffffffffffff82169050919050565b5f610ce282610cb9565b9050919050565b610cf281610cd8565b8114610cfc575f80fd5b50565b5f81359050610d0d81610ce9565b92915050565b5f60208284031215610d2857610d27610cb1565b5b5f610d3584828501610cff565b91505092915050565b5f819050919050565b610d5081610d3e565b82525050565b5f602082019050610d695f830184610d47565b92915050565b5f80fd5b5f80fd5b5f601f19601f8301169050919050565b7f4e487b71000000000000000000000000000000000000000000000000000000005f52604160045260245ffd5b610dbd82610d77565b810181811067ffffffffffffffff82111715610ddc57610ddb610d87565b5b80604052505050565b5f610dee610ca8565b9050610dfa8282610db4565b919050565b5f67ffffffffffffffff821115610e1957610e18610d87565b5b610e2282610d77565b9050602081019050919050565b828183375f83830152505050565b5f610e4f610e4a84610dff565b610de5565b905082815260208101848484011115610e6b57610e6a610d73565b5b610e76848285610e2f565b509392505050565b5f82601f830112610e9257610e91610d6f565b5b8135610ea2848260208601610e3d565b91505092915050565b5f610eb582610cb9565b9050919050565b610ec581610eab565b8114610ecf575f80fd5b50565b5f81359050610ee081610ebc565b92915050565b610eef81610d3e565b8114610ef9575f80fd5b50565b5f81359050610f0a81610ee6565b92915050565b5f805f60608486031215610f2757610f26610cb1565b5b5f84013567ffffffffffffffff811115610f4457610f43610cb5565b5b610f5086828701610e7e565b9350506020610f6186828701610ed2565b9250506040610f7286828701610efc565b9150509250925092565b610f8581610cd8565b82525050565b5f602082019050610f9e5f830184610f7c565b92915050565b5f60208284031215610fb957610fb8610cb1565b5b5f610fc684828501610efc565b91505092915050565b5f81519050919050565b5f82825260208201905092915050565b5f5b83811015611006578082015181840152602081019050610feb565b5f8484015250505050565b5f61101b82610fcf565b6110258185610fd9565b9350611035818560208601610fe9565b61103e81610d77565b840191505092915050565b61105281610eab565b82525050565b5f8115159050919050565b61106c81611058565b82525050565b5f60a0820190508181035f83015261108a8188611011565b90506110996020830187610d47565b6110a66040830186611049565b6110b36060830185610d47565b6110c06080830184611063565b9695505050505050565b7f54686520646561646c696e6520686173206f63637572726564000000000000005f82015250565b5f6110fe601983610fd9565b9150611109826110ca565b602082019050919050565b5f6020820190508181035f83015261112b816110f2565b9050919050565b7f546865206d696e696d756d20636f6e747269627574696f6e20686173206e6f745f8201527f206265656e206d65740000000000000000000000000000000000000000000000602082015250565b5f61118c602983610fd9565b915061119782611132565b604082019050919050565b5f6020820190508181035f8301526111b981611180565b9050919050565b7f4e487b71000000000000000000000000000000000000000000000000000000005f52601160045260245ffd5b5f6111f782610d3e565b91507fffffffffffffffffffffffffffffffffffffffffffffffffffffffffffffffff8203611229576112286111c0565b5b600182019050919050565b5f61123e82610d3e565b915061124983610d3e565b9250828201905080821115611261576112606111c0565b5b92915050565b7f4f6e6c79206d616e616765722063616e206163636573732074686973000000005f82015250565b5f61129b601c83610fd9565b91506112a682611267565b602082019050919050565b5f6020820190508181035f8301526112c88161128f565b9050919050565b7f4e487b71000000000000000000000000000000000000000000000000000000005f52602260045260245ffd5b5f600282049050600182168061131357607f821691505b602082108103611326576113256112cf565b5b50919050565b5f819050815f5260205f209050919050565b5f6020601f8301049050919050565b5f82821b905092915050565b5f600883026113887fffffffffffffffffffffffffffffffffffffffffffffffffffffffffffffffff8261134d565b611392868361134d565b95508019841693508086168417925050509392505050565b5f819050919050565b5f6113cd6113c86113c384610d3e565b6113aa565b610d3e565b9050919050565b5f819050919050565b6113e6836113b3565b6113fa6113f2826113d4565b848454611359565b825550505050565b5f90565b61140e611402565b6114198184846113dd565b505050565b5b8181101561143c576114315f82611406565b60018101905061141f565b5050565b601f821115611481576114528161132c565b61145b8461133e565b8101602085101561146a578190505b61147e6114768561133e565b83018261141e565b50505b505050565b5f82821c905092915050565b5f6114a15f1984600802611486565b1980831691505092915050565b5f6114b98383611492565b9150826002028217905092915050565b6114d282610fcf565b67ffffffffffffffff8111156114eb576114ea610d87565b5b6114f582546112fc565b611500828285611440565b5f60209050601f831160018114611531575f841561151f578287015190505b61152985826114ae565b865550611590565b601f19841661153f8661132c565b5f5b8281101561156657848901518255600182019150602085019450602081019050611541565b86831015611583578489015161157f601f891682611492565b8355505b6001600288020188555050505b505050505050565b7f54617267657420616d6f756e74206e6f742072656163686564000000000000005f82015250565b5f6115cc601983610fd9565b91506115d782611598565b602082019050919050565b5f6020820190508181035f8301526115f9816115c0565b9050919050565b7f566f74696e6720666f7220746869732072657175657374206973206e6f7420635f8201527f6f6d706c65746500000000000000000000000000000000000000000000000000602082015250565b5f61165a602783610fd9565b915061166582611600565b604082019050919050565b5f6020820190508181035f8301526116878161164e565b9050919050565b7f4e487b71000000000000000000000000000000000000000000000000000000005f52601260045260245ffd5b5f6116c582610d3e565b91506116d083610d3e565b9250826116e0576116df61168e565b5b828204905092915050565b7f4e6f7420656e6f75676820766f74657320746f20617070726f766520746869735f8201527f2072657175657374000000000000000000000000000000000000000000000000602082015250565b5f611745602883610fd9565b9150611750826116eb565b604082019050919050565b5f6020820190508181035f83015261177281611739565b9050919050565b7f596f75206d757374206265206120636f6e7472696275746f7220746f20766f745f8201527f6500000000000000000000000000000000000000000000000000000000000000602082015250565b5f6117d3602183610fd9565b91506117de82611779565b604082019050919050565b5f6020820190508181035f830152611800816117c7565b9050919050565b7f596f75206861766520616c726561647920766f74656420666f722074686973205f8201527f7265717565737400000000000000000000000000000000000000000000000000602082015250565b5f611861602783610fd9565b915061186c82611807565b604082019050919050565b5f6020820190508181035f83015261188e81611855565b9050919050565b7f526566756e64206973206e6f7420616c6c6f77656400000000000000000000005f82015250565b5f6118c9601583610fd9565b91506118d482611895565b602082019050919050565b5f6020820190508181035f8301526118f6816118bd565b9050919050565b7f4e6f7468696e6720746f20726566756e640000000000000000000000000000005f82015250565b5f611931601183610fd9565b915061193c826118fd565b602082019050919050565b5f6020820190508181035f83015261195e81611925565b905091905056fea2646970667358221220e9a3cb862652356eaf19bcda35ea388609451372b5f817e5734157c727bf449964736f6c63430008140033",
  "immutableReferences": {},
  "source": "// SPDX-License-Identifier: MIT\r\npragma solidity ^0.8.7;\r\n\r\ncontract Project {\r\n    mapping(address => uint) public contributorsamount;\r\n    address public manager;\r\n    uint public target;\r\n    uint public deadline;\r\n    uint public minimum_contirbution;\r\n    uint public raisedamount;\r\n    uint public number_of_contributors;\r\n    uint public numberofrequests;\r\n\r\n    struct Request {\r\n        string description;\r\n        uint amountrequired;\r\n        address payable reciepent;\r\n        uint numberofvotes;\r\n        bool votingdone;\r\n        mapping(address => bool) voters;\r\n    }\r\n\r\n    mapping(uint => Request) public aboutrequest;\r\n\r\n    constructor(uint _target, uint _deadline) {\r\n        deadline = block.timestamp + _deadline;\r\n        target = _target;\r\n        minimum_contirbution = 100 wei;\r\n        manager = msg.sender;\r\n    }\r\n\r\n    function sendeth() public payable {\r\n        require(block.timestamp < deadline, \"The deadline has occurred\");\r\n        require(msg.value >= minimum_contirbution, \"The minimum contribution has not been met\");\r\n\r\n        if (contributorsamount[msg.sender] == 0) {\r\n            number_of_contributors++;\r\n        }\r\n        contributorsamount[msg.sender] += msg.value;\r\n        raisedamount += msg.value;\r\n    }\r\n\r\n    function getbalance() public view returns (uint) {\r\n        return address(this).balance;\r\n    }\r\n\r\n    function refund() public {\r\n        require(raisedamount < target || block.timestamp > deadline, \"Refund is not allowed\");\r\n        require(contributorsamount[msg.sender] > 0, \"Nothing to refund\");\r\n\r\n        address payable moneyholder = payable(msg.sender);\r\n        moneyholder.transfer(contributorsamount[msg.sender]);\r\n        contributorsamount[msg.sender] = 0;\r\n    }\r\n\r\n    modifier onlymanager() {\r\n        require(msg.sender == manager, \"Only manager can access this\");\r\n        _;\r\n    }\r\n\r\n    function createrequest(string memory _description, address payable _reciepent, uint _amountrequired) public onlymanager {\r\n        Request storage REQUEST = aboutrequest[numberofrequests];\r\n        numberofrequests++;\r\n        REQUEST.description = _description;\r\n        REQUEST.reciepent = _reciepent;\r\n        REQUEST.amountrequired = _amountrequired;\r\n        REQUEST.votingdone = false;\r\n        REQUEST.numberofvotes = 0;\r\n    }\r\n\r\n    function voteRequest(uint _requestNo) public {\r\n        require(contributorsamount[msg.sender] > 0, \"You must be a contributor to vote\");\r\n        Request storage thisRequest = aboutrequest[_requestNo];\r\n        require(thisRequest.voters[msg.sender] == false, \"You have already voted for this request\");\r\n        thisRequest.voters[msg.sender] = true;\r\n        thisRequest.numberofvotes++;\r\n        if (thisRequest.numberofvotes == number_of_contributors) {\r\n            thisRequest.votingdone = true;\r\n        }\r\n    }\r\n\r\n    function recieveth(uint _requestNo) public onlymanager {\r\n        require(raisedamount >= target, \"Target amount not reached\");\r\n        Request storage thisRequest = aboutrequest[_requestNo];\r\n        require(thisRequest.votingdone == true, \"Voting for this request is not complete\");\r\n        require(thisRequest.numberofvotes > number_of_contributors / 2, \"Not enough votes to approve this request\");\r\n        thisRequest.reciepent.transfer(thisRequest.amountrequired);\r\n        thisRequest.votingdone = false;\r\n        thisRequest.numberofvotes = 0;\r\n    }\r\n}\r\n",
  "sourcePath": "C:\\Users\\HP\\Desktop\\PROGYASH\\PROJECT\\contracts\\Project.sol",
  "compiler": {
    "name": "solc",
    "version": "0.8.20+commit.a1b79de6.Emscripten.clang"
  },
  "schemaVersion": "3.4.14",
  "updatedAt": "2023-06-08T14:17:34.637Z",
  "devdoc": {
    "kind": "dev",
    "methods": {},
    "version": 1
  },
  "userdoc": {
    "kind": "user",
    "methods": {},
    "version": 1
  }
}